:020000040800F2
:10000000005000203D4200081D1600081F16000881
:10001000211600082316000825160008000000001D
:10002000000000000000000000000000271600088B
:1000300029160008000000002B1600082D160008E5
:100040008542000885420008854200088542000874
:100050008542000885420008854200088542000864
:100060008542000885420008854200088542000854
:1000700085420008854200088542000835160008C0
:100080008542000885420008854200088542000834
:100090008542000885420008854200088542000824
:1000A0008542000845160008854200088542000880
:1000B0008542000885420008854200088542000804
:1000C00085420008854200088542000885420008F4
:1000D0008542000855160008854200088542000840
:1000E00085420008854200088542000800000000A3
:1000F0000000000000000000000000000000000000
:0C01000000000000000000005FF808F1A3
:1001100010B5054C237833B9044B13B10448AFF341
:1001200000800123237010BD440200200000000065
:10013000BC72000808B5034B1BB103490348AFF379
:10014000008008BD0000000048020020BC720008CA
:10015000034613F8012B002AFBD1181A0138704707
:1001600081F0004102E000BF83F0004330B54FEA68
:1001700041044FEA430594EA050F08BF90EA020FD5
:100180001FBF54EA000C55EA020C7FEA645C7FEA68
:10019000655C00F0E2804FEA5454D4EB5555B8BF8B
:1001A0006D420CDD2C4480EA020281EA030382EAFC
:1001B000000083EA010180EA020281EA0303362D8E
:1001C00088BF30BD11F0004F4FEA01314FF4801C61
:1001D0004CEA113102D0404261EB410113F0004F73
:1001E0004FEA03334CEA133302D0524263EB43032A
:1001F00094EA050F00F0A780A4F10104D5F1200EC8
:100200000DDB02FA0EFC22FA05F2801841F1000122
:1002100003FA0EF2801843FA05F359410EE0A5F1F6
:1002200020050EF1200E012A03FA0EFC28BF4CF027
:10023000020C43FA05F3C01851EBE37101F00045DD
:1002400007D54FF0000EDCF1000C7EEB00006EEBEA
:100250000101B1F5801F1BD3B1F5001F0CD3490874
:100260005FEA30004FEA3C0C04F101044FEA4452CB
:1002700012F5800F80F09A80BCF1004F08BF5FEA52
:10028000500C50F1000041EB045141EA050130BD32
:100290005FEA4C0C404141EB0101013C28BFB1F544
:1002A000801FE9D291F0000F04BF01460020B1FA8F
:1002B00081F308BF2033A3F10B03B3F120020CDA62
:1002C0000C3208DD02F1140CC2F10C0201FA0CF040
:1002D00021FA02F10CE002F11402D8BFC2F1200CA5
:1002E00001FA02F120FA0CFCDCBF41EA0C0190405B
:1002F000E41AA2BF01EB0451294330BD6FEA0404A4
:100300001F3C1CDA0C340EDC04F11404C4F120028E
:1003100020FA04F001FA02F340EA030021FA04F3A0
:1003200045EA030130BDC4F10C04C4F1200220FAF7
:1003300002F001FA04F340EA0300294630BD21FA35
:1003400004F0294630BD94F0000F83F4801306BFFB
:1003500081F480110134013D4EE77FEA645C18BFEF
:100360007FEA655C29D094EA050F08BF90EA020F86
:1003700005D054EA000C04BF1946104630BD91EA7E
:10038000030F1EBF0021002030BD5FEA545C05D181
:100390004000494128BF41F0004130BD14F58004C0
:1003A0003CBF01F5801130BD01F0004545F0FE4134
:1003B00041F470014FF0000030BD7FEA645C1ABF69
:1003C000194610467FEA655C1CBF0B46024650EAA0
:1003D000013406BF52EA033591EA030F41F40021CC
:1003E00030BD00BF90F0000F04BF0021704730B552
:1003F0004FF4806404F132044FF000054FF0000127
:1004000050E700BF90F0000F04BF0021704730B5E7
:100410004FF4806404F1320410F0004548BF4042BC
:100420004FF000013EE700BF42004FEAE2014FEA11
:1004300031014FEA02701FBF12F07F4393F07F4FEC
:1004400081F06051704732F07F4208BF704793F0EF
:100450007F4F04BF41F40021704730B54FF4607402
:1004600001F0004521F000411CE700BF50EA010205
:1004700008BF704730B54FF000050AE050EA0102AE
:1004800008BF704730B511F0004502D5404261EB1E
:1004900041014FF4806404F132045FEA915C3FF45F
:1004A000D8AE4FF003025FEADC0C18BF03325FEAFC
:1004B000DC0C18BF033202EBDC02C2F1200300FAAD
:1004C00003FC20FA02F001FA03FE40EA0E0021FAD2
:1004D00002F11444BDE600BF70B54FF0FF0C4CF4C0
:1004E000E06C1CEA11541DBF1CEA135594EA0C0F72
:1004F00095EA0C0F00F0DEF82C4481EA030621EAAD
:100500004C5123EA4C5350EA013518BF52EA0335E7
:1005100041F4801143F4801338D0A0FB02CE4FF099
:100520000005E1FB02E506F00042E0FB03E54FF0C9
:100530000006E1FB03569CF0000F18BF4EF0010EC1
:10054000A4F1FF04B6F5007F64F5407404D25FEABD
:100550004E0E6D4146EB060642EAC62141EA555170
:100560004FEAC52040EA5E504FEACE2EB4F1FD0CB2
:1005700088BFBCF5E06F1ED8BEF1004F08BF5FEA30
:10058000500E50F1000041EB045170BD06F00046E2
:1005900046EA010140EA020081EA0301B4EB5C048F
:1005A000C2BFD4EB0C0541EA045170BD41F4801187
:1005B0004FF0000E013C00F3AB8014F1360FDEBFAC
:1005C000002001F0004170BDC4F10004203C35DA88
:1005D0000C341BDC04F11404C4F1200500FA05F30B
:1005E00020FA04F001FA05F240EA020001F00042AC
:1005F00021F0004110EBD37021FA04F642EB060122
:100600005EEA430E08BF20EAD37070BDC4F10C044B
:10061000C4F1200500FA04F320FA05F001FA04F20F
:1006200040EA020001F0004110EBD37041F10001FB
:100630005EEA430E08BF20EAD37070BDC4F1200506
:1006400000FA05F24EEA020E20FA04F301FA05F26E
:1006500043EA020321FA04F001F0004121FA04F216
:1006600020EA020000EBD3705EEA430E08BF20EAE6
:10067000D37070BD94F0000F0FD101F00046400020
:1006800041EB010111F4801F08BF013CF7D041EAA2
:10069000060195F0000F18BF704703F000465200A6
:1006A00043EB030313F4801F08BF013DF7D043EA77
:1006B0000603704794EA0C0F0CEA135518BF95EA2D
:1006C0000C0F0CD050EA410618BF52EA4306D1D1B4
:1006D00081EA030101F000414FF0000070BD50EAD3
:1006E000410606BF1046194652EA430619D094EA5D
:1006F0000C0F02D150EA013613D195EA0C0F05D147
:1007000052EA03361CBF104619460AD181EA03019A
:1007100001F0004141F0FE4141F470014FF0000052
:1007200070BD41F0FE4141F4780170BD70B54FF0ED
:10073000FF0C4CF4E06C1CEA11541DBF1CEA13556D
:1007400094EA0C0F95EA0C0F00F0A7F8A4EB05044F
:1007500081EA030E52EA03354FEA013100F0888046
:100760004FEA03334FF0805545EA131343EA12630F
:100770004FEA022245EA111545EA10654FEA0026C4
:100780000EF000419D4208BF964244F1FD0404F57D
:10079000407402D25B084FEA3202B61A65EB0305D9
:1007A0005B084FEA32024FF480104FF4002CB6EB96
:1007B000020E75EB030E22BFB61A754640EA0C0016
:1007C0005B084FEA3202B6EB020E75EB030E22BF56
:1007D000B61A754640EA5C005B084FEA3202B6EB97
:1007E000020E75EB030E22BFB61A754640EA9C0056
:1007F0005B084FEA3202B6EB020E75EB030E22BF26
:10080000B61A754640EADC0055EA060E18D04FEAE3
:10081000051545EA16754FEA06164FEAC30343EA83
:1008200052734FEAC2025FEA1C1CC0D111F4801F50
:100830000BD141EA00014FF000004FF0004CB6E749
:1008400011F4801F04BF01430020B4F1FD0C88BFE8
:10085000BCF5E06F3FF6AFAEB5EB030C04BFB6EBF3
:10086000020C5FEA500C50F1000041EB045170BDE6
:100870000EF0004E4EEA113114EB5C04C2BFD4EB13
:100880000C0541EA045170BD41F480114FF0000E97
:10089000013C90E645EA060E8DE60CEA135594EA13
:1008A0000C0F08BF95EA0C0F3FF43BAF94EA0C0F16
:1008B0000AD150EA01347FF434AF95EA0C0F7FF48B
:1008C00025AF104619462CE795EA0C0F06D152EADF
:1008D00003353FF4FDAE1046194622E750EA4106C3
:1008E00018BF52EA43067FF4C5AE50EA41047FF4D4
:1008F0000DAF52EA43057FF4EBAE12E74FF0FF3C39
:1009000006E000BF4FF0010C02E000BF4FF0010C09
:100910004DF804CD4FEA410C7FEA6C5C4FEA430C82
:1009200018BF7FEA6C5C1BD001B050EA410C0CBFD1
:1009300052EA430C91EA030F02BF90EA020F002033
:10094000704710F1000F91EA030F58BF994208BF9A
:1009500090422CBFD8176FEAE37040F00100704757
:100960004FEA410C7FEA6C5C02D150EA013C07D1AE
:100970004FEA430C7FEA6C5CD6D152EA033CD3D0F9
:100980005DF8040B704700BF8446104662468C46F3
:100990001946634600E000BF01B5FFF7B7FF002826
:1009A00048BF10F1000F01BD4DF808EDFFF7F4FF4F
:1009B0000CBF012000205DF808FB00BF4DF808EDDA
:1009C000FFF7EAFF34BF012000205DF808FB00BFFD
:1009D0004DF808EDFFF7E0FF94BF012000205DF81F
:1009E00008FB00BF4DF808EDFFF7CEFF94BF0120D4
:1009F00000205DF808FB00BF4DF808EDFFF7C4FFCD
:100A000034BF012000205DF808FB00BF4FEA410C15
:100A10007FEA6C5C02D150EA013C0AD14FEA430CF8
:100A20007FEA6C5C02D152EA033C02D14FF0000035
:100A300070474FF0010070474FEA410212F5001273
:100A400015D211D56FF47873B3EB625212D94FEA15
:100A5000C12343F0004343EA505311F0004F23FAFF
:100A600002F018BF404270474FF00000704750EA54
:100A7000013005D111F0004008BF6FF00040704711
:100A80004FF00000704700BF4A0011D212F500126B
:100A900011D20DD56FF47873B3EB62520ED44FEAD6
:100AA000C12343F0004343EA505323FA02F0704756
:100AB0004FF00000704750EA013002D14FF0FF3094
:100AC00070474FF0000070474FEA4102B2F1E04337
:100AD00024BFB3F5001CDCF1FE5C0DD901F0004C25
:100AE0004FEAC0024CEA5070B2F1004F40EB830075
:100AF00008BF20F00100704711F0804F21D113F1A1
:100B00003872BCBF01F00040704741F480114FEAD9
:100B10005252C2F11802C2F1200C10FA0CF320FA62
:100B200002F018BF40F001004FEAC1234FEAD3237F
:100B300003FA0CFC40EA0C0023FA02F34FEA4303E9
:100B4000CCE77FEA625307D150EA01331EBF4FF072
:100B5000FE4040F44000704701F0004040F0FE408D
:100B600040F40000704700BF80F0004002E000BF8A
:100B700081F0004142001FBF5FEA410392EA030F88
:100B80007FEA226C7FEA236C6AD04FEA1262D2EBD2
:100B90001363C1BFD218414048404140B8BF5B42D7
:100BA000192B88BF704710F0004F40F4000020F070
:100BB0007F4018BF404211F0004F41F4000121F086
:100BC0007F4118BF494292EA030F3FD0A2F10102D0
:100BD00041FA03FC10EB0C00C3F1200301FA03F10E
:100BE00000F0004302D5494260EB4000B0F5000F31
:100BF00013D3B0F1807F06D340084FEA310102F1F0
:100C00000102FE2A51D2B1F1004F40EBC25008BFA1
:100C100020F0010040EA03007047490040EB00006B
:100C2000013A28BFB0F5000FEDD2B0FA80FCACF16C
:100C3000080CB2EB0C0200FA0CF0AABF00EBC25099
:100C400052421843BCBFD0401843704792F0000F87
:100C500081F4000106BF80F400000132013BB5E7DA
:100C60004FEA41037FEA226C18BF7FEA236C21D050
:100C700092EA030F04D092F0000F08BF08467047B5
:100C800090EA010F1CBF0020704712F07F4F04D183
:100C9000400028BF40F00040704712F100723CBF96
:100CA00000F50000704700F0004343F0FE4040F4C0
:100CB000000070477FEA226216BF08467FEA23637E
:100CC0000146420206BF5FEA412390EA010F40F469
:100CD000800070474FF0000304E000BF10F00043B5
:100CE00048BF40425FEA000C08BF704743F096439C
:100CF00001464FF000001CE050EA010208BF7047B7
:100D00004FF000030AE000BF50EA010208BF70473D
:100D100011F0004302D5404261EB41015FEA010C52
:100D200002BF84460146002043F0B64308BFA3F14A
:100D30008053A3F50003BCFA8CF2083AA3EBC2532C
:100D400010DB01FA02FC634400FA02FCC2F120024B
:100D5000BCF1004F20FA02F243EB020008BF20F082
:100D60000100704702F1200201FA02FCC2F12002E8
:100D700050EA4C0021FA02F243EB020008BF20EADD
:100D8000DC7070474FF0FF0C1CEAD0521EBF1CEA0B
:100D9000D15392EA0C0F93EA0C0F6FD01A4480EAF9
:100DA000010C400218BF5FEA41211ED04FF00063E2
:100DB00043EA501043EA5111A0FB01310CF000400E
:100DC000B1F5000F3EBF490041EAD3715B0040EA34
:100DD000010062F17F02FD2A1DD8B3F1004F40EB04
:100DE000C25008BF20F00100704790F0000F0CF0D7
:100DF000004C08BF49024CEA502040EA51207F3A9B
:100E0000C2BFD2F1FF0340EAC250704740F4000075
:100E10004FF00003013A5DDC12F1190FDCBF00F066
:100E200000407047C2F10002410021FA02F1C2F114
:100E3000200200FA02FC5FEA310040F1000053EAB0
:100E40004C0308BF20EADC70704792F0000F00F0FE
:100E5000004C02BF400010F4000F013AF9D040EA04
:100E60000C0093F0000F01F0004C02BF490011F498
:100E7000000F013BF9D041EA0C018FE70CEAD15396
:100E800092EA0C0F18BF93EA0C0F0AD030F0004C16
:100E900018BF31F0004CD8D180EA010000F00040CA
:100EA000704790F0000F17BF90F0004F084691F088
:100EB000000F91F0004F14D092EA0C0F01D14202C2
:100EC0000FD193EA0C0F03D14B0218BF084608D18B
:100ED00080EA010000F0004040F0FE4040F40000D5
:100EE000704740F0FE4040F4400070474FF0FF0C68
:100EF0001CEAD0521EBF1CEAD15392EA0C0F93EAAF
:100F00000C0F69D0A2EB030280EA010C49024FEA00
:100F1000402037D04FF0805343EA111143EA1013B9
:100F20000CF000408B4238BF5B0042F17D024FF471
:100F3000000C8B4224BF5B1A40EA0C00B3EB510F4C
:100F400024BFA3EB510340EA5C00B3EB910F24BF35
:100F5000A3EB910340EA9C00B3EBD10F24BFA3EBBA
:100F6000D10340EADC001B0118BF5FEA1C1CE0D182
:100F7000FD2A3FF650AF8B4240EBC25008BF20F035
:100F8000010070470CF0004C4CEA50207F32C2BF89
:100F9000D2F1FF0340EAC250704740F400004FF026
:100FA0000003013A37E792F0000F00F0004C02BF57
:100FB000400010F4000F013AF9D040EA0C0093F021
:100FC000000F01F0004C02BF490011F4000F013B7B
:100FD000F9D041EA0C0195E70CEAD15392EA0C0FE3
:100FE00008D142027FF47DAF93EA0C0F7FF470AF1B
:100FF000084676E793EA0C0F04D14B023FF44CAF5E
:1010000008466EE730F0004C18BF31F0004CCAD1F2
:1010100030F000427FF45CAF31F000437FF43CAF2E
:101020005FE700BF4FF0FF3C06E000BF4FF0010C50
:1010300002E000BF4FF0010C4DF804CD4FEA400232
:101040004FEA41037FEA226C18BF7FEA236C11D07C
:1010500001B052EA530C18BF90EA010F58BFB2EB2F
:10106000030088BFC81738BF6FEAE17018BF40F0AF
:10107000010070477FEA226C02D15FEA402C05D163
:101080007FEA236CE4D15FEA412CE1D05DF8040BE8
:10109000704700BF844608466146FFE70FB5FFF77B
:1010A000C9FF002848BF10F1000F0FBD4DF808ED33
:1010B000FFF7F4FF0CBF012000205DF808FB00BF24
:1010C0004DF808EDFFF7EAFF34BF012000205DF87E
:1010D00008FB00BF4DF808EDFFF7E0FF94BF0120CB
:1010E00000205DF808FB00BF4DF808EDFFF7D2FFC8
:1010F00094BF012000205DF808FB00BF4DF808ED0B
:10110000FFF7C8FF34BF012000205DF808FB00BFD7
:101110004FEA4002B2F1FE4F0FD34FF09E03B3EB04
:1011200012620DD94FEA002343F0004310F0004F44
:1011300023FA02F018BF404270474FF0000070479A
:1011400012F1610F01D1420205D110F0004008BF39
:101150006FF0004070474FF00000704784B00F4BB5
:101160009A6942F020029A619A6902F02002019283
:10117000019A9A6942F004029A619A6902F00402A3
:101180000292029A9A6942F008029A619B6903F0FE
:1011900008030393039B04B0704700BF0010024094
:1011A00030B583B00378012903D0762B1BD003B070
:1011B00030BD622B06D0702B10D01D491D4803F0A6
:1011C00030F8F4E71B4C1C4D62681C49284603F0BC
:1011D000DFFD2946204603F024F8E8E718491548C2
:1011E00003F01FF8E3E7174B01221A700024019463
:1011F00001AA154903F01CFE0BE0651E03F043F83D
:10120000124B43F8250007E001AA0F49002003F024
:101210000FFE38B1002CF0D10134E4B2032CF3D12D
:101220000024F1E7094B1968094802F01DFEBEE7EA
:10123000F872000880030020E0030020D872000844
:10124000E8720008600200200C730008F40300201C
:101250002C00002000B583B00A4B5A6942F001020D
:101260005A615B6903F001030193019B002211465F
:101270000F2001F02BFE0F2001F060FE03B05DF89F
:1012800004FB00BF001002400268224B9A4200D0CB
:10129000704710B5204B1B789BB9204B1B78082B4F
:1012A0001CD01E4C22781E4B53F822101D4802F011
:1012B000DBFD237801332370174A1378C3F1010350
:1012C0001370194B194A1A49164802F081FF194B3D
:1012D0001B78C72B06D9C82B15D010BD164800F0B7
:1012E000A1FBDEE7154C0F4BB3F940201449204613
:1012F00003F04EFD2146134802F093FF0D4A137888
:1013000001331370E9E70023034A1370094A13708D
:10131000E3E700BF002C014060020020DC03002056
:10132000000000202C0000203004002018040020C1
:101330000004002061020020A8020020E003002039
:10134000107300088003002038B502680A4B9A42E7
:1013500000D038BD0446094D2846FFF721FF002381
:101360002B606B60AB60EB602B6114232A46044951
:10137000204602F04AFFECE700380140C803002095
:101380006402002072B6FEE700B587B00023029326
:10139000039304930593009301931548154A026043
:1013A0004FF43472426083604FF4FA62C2600361AA
:1013B00043618023836100F04BFC90B94FF480536C
:1013C000029302A90A4800F0A3FD60B9002300932C
:1013D00001936946064800F0FDFE30B907B05DF89C
:1013E00004FBFFF7CFFFFFF7CDFFFFF7CBFF00BFF9
:1013F000A8020020002C014000B58DB0242200215D
:1014000003A802F071FF00230193029313484FF0E9
:1014100080420260436083604FF6FF72C2600361E6
:101420008023836103230393012205920A230793F8
:1014300009920B9303A900F063FC50B900230193B8
:10144000029301A9054800F0C5FE20B90DB05DF872
:1014500004FBFFF797FFFFF795FF00BFF0020020A6
:1014600000B58FB000230A930B930C930D93089350
:1014700009930193029303930493059306930793AF
:101480001E481F4A026047224260836040F2F31206
:10149000C26003618023836100F0DAFB20BB4FF45C
:1014A00080530A930AA9154800F032FDF0B9134899
:1014B00000F0FAFBE0B900230893099308A90F484C
:1014C00000F088FEB0B960230193002202920392DB
:1014D000059201A9094800F0A1FC68B9074800F08D
:1014E00035F90FB05DF804FBFFF74CFFFFF74AFF3B
:1014F000FFF748FFFFF746FFFFF744FF38030020E0
:101500000008004008B50A480A4B03604FF4E13375
:10151000436000238360C36003610C2242618361E6
:10152000C36101F029FE00B908BDFFF72BFF00BF22
:10153000800300200038014000B591B0282200212E
:1015400006A802F0D1FE00230193029303930493B3
:101550000593012206924FF4803307930A920222E8
:101560000D920E934FF4E0130F9306A800F0DEFEE9
:1015700080B90F23019302210291002303934FF4BA
:1015800080620492059301A801F002F920B911B01C
:101590005DF804FBFFF7F6FEFFF7F4FE08B500F078
:1015A00077FEFFF7C9FFFFF7D9FDFFF753FEFFF7FF
:1015B000EBFEFFF721FFFFF753FFFFF7A3FF3C21EF
:1015C0000E4800F0A1FD00210D4800F02FFD0D4C4C
:1015D0000D49204602F07CFC4FF47A7000F07CFE4E
:1015E00014230A4A0A49204602F00FFE0949204600
:1015F00002F017FE084800F0E1F9FEE7F0020020D3
:1016000038030020800300202C000020C8030020A5
:101610006402002018730008A8020020FEE7FEE71D
:10162000FEE7FEE7FEE770477047704708B500F039
:1016300041FE08BD08B5024801F094FB08BD00BF9B
:101640006402002008B5024800F00AFA08BD00BF95
:10165000A802002008B5024801F0D6FE08BD00BF70
:101660008003002082B00A4B9A6942F001029A611D
:101670009A6902F001020092009ADA6942F08052FF
:10168000DA61DB6903F080530193019B02B070477C
:101690000010024000B583B00368134A934205D09E
:1016A000124A934215D003B05DF804FB104B9A69BF
:1016B00042F400629A619B6903F400630093009B0B
:1016C00000221146192001F001FC192001F036FC1E
:1016D000E9E7074BDA6942F00402DA61DB6903F0FB
:1016E00004030193019BDEE7002C01400008004049
:1016F0000010024000B587B00023029303930493C7
:1017000005930368B3F1804F02D007B05DF804FB86
:1017100003F50433DA6942F00102DA61DA6902F0B2
:1017200001020092009A9A6942F004029A619B6950
:1017300003F004030193019B0323029302A90248CF
:1017400001F002F9E1E700BF0008014000B587B0F1
:101750000023029303930493059302680D4B9A426E
:1017600002D007B05DF804FB03F502339A6942F03A
:1017700008029A619B6903F008030193019B4023CF
:10178000029302230393059302A9034801F0DCF8B6
:10179000E7E700BF00080040000C014070B586B0CC
:1017A000002302930393049305930268264B9A4205
:1017B00001D006B070BD044603F558439A6942F45F
:1017C00080429A619A6902F480420092009A9A6972
:1017D00042F004029A619B6903F004030193019BA8
:1017E0004FF4007302930223039303230593174ED0
:1017F00002A9304601F0A8F84FF480630293002557
:101800000395049502A9304601F09EF81048114B4B
:101810000360456085608023C36005614561856123
:10182000C56101F0BFF958B9094BE3635C6200225E
:101830001146252001F04AFB252001F07FFBB8E787
:10184000FFF7A0FDF0E700BF0038014000080140AD
:10185000640200205800024070B4036A026A22F059
:10186000010202624668826922F073020C6844EA4F
:10187000020523F002028B6813430D4CA04209D0ED
:101880000B4CA0420DD0466085614A6842630362FA
:1018900070BC704723F00803CA68134323F00403A5
:1018A000EEE726F440764A6932438E691643EAE74A
:1018B000002C014030B4036A026A22F48072026292
:1018C0004568C26922F073020C68224323F4007356
:1018D0008C6843EA04230F4CA04209D00D4CA0426F
:1018E0000ED04560C2614A68C263036230BC704773
:1018F00023F40063CC6843EA042323F48063EDE718
:1019000025F440554C6945EA04158C6945EA0415EF
:10191000E7E700BF002C014030B4036A026A22F4FA
:10192000805202624468C26922F4E6420D6842EACB
:10193000052223F400538D6843EA0533074DA8427E
:1019400006D04460C2614A680264036230BC7047DA
:1019500024F480444D6944EA8514F2E7002C0140E8
:1019600010B4036A046A24F001040462846924F058
:10197000F00C4CEA021223F00A030B43826103626B
:1019800010BC704710B4036A046A24F010040462A7
:10199000846924F4704C4CEA023223F0A00343EA39
:1019A00001138261036210BC7047836823F07003E7
:1019B0000B4343F0070383607047000090F83D300D
:1019C000DBB2012B27D1022380F83D300268D368B7
:1019D00043F00103D3600368114A934210D0B3F17E
:1019E000804F0DD0A2F59432934209D002F5806267
:1019F000934205D01A6842F001021A600020704735
:101A00009A6802F00702062A07D01A6842F001021B
:101A10001A6000207047012070470020704700BF07
:101A2000002C01400268D36823F00103D3600368EF
:101A3000196A41F21112114208D1196A40F2444266
:101A4000114203D11A6822F001021A60012380F8C2
:101A50003D300020704770477047704770477047AF
:101A600010B5044603681A6912F0020F11D0DA6843
:101A700012F0020F0DD06FF002021A6101230377FA
:101A800003689B6913F0030F70D0FFF7E6FF002394
:101A9000237723681A6912F0040F12D0DA6812F063
:101AA000040F0ED06FF004021A610223237723681B
:101AB0009B6913F4407F5FD02046FFF7CEFF0023E1
:101AC000237723681A6912F0080F12D0DA6812F02F
:101AD000080F0ED06FF008021A61042323772368E1
:101AE000DB6913F0030F4ED02046FFF7B6FF00234B
:101AF000237723681A6912F0100F12D0DA6812F0F7
:101B0000100F0ED06FF010021A610823237723689C
:101B1000DB6913F4407F3DD02046FFF79EFF002392
:101B2000237723681A6912F0010F03D0DA6812F0E4
:101B3000010F36D123681A6912F0800F03D0DA68DA
:101B400012F0800F34D123681A6912F0400F03D0CD
:101B5000DA6812F0400F32D123681A6912F0200FB0
:101B600003D0DA6812F0200F30D110BDFFF774FFF8
:101B70002046FFF773FF8AE72046FFF76DFF2046F8
:101B8000FFF76CFF9BE72046FFF766FF2046FFF755
:101B900065FFACE72046FFF75FFF2046FFF75EFFDB
:101BA000BDE76FF001021A612046FFF76DFBC1E748
:101BB0006FF080021A61204600F043FBC3E76FF02C
:101BC00040021A612046FFF74AFFC5E76FF0200286
:101BD0001A61204600F034FBC7E7000003681B4A87
:101BE00090420AD0B0F1804F07D0A2F594329042D3
:101BF00003D002F58062904203D123F070034A685B
:101C00001343124A90420AD0B0F1804F07D0A2F598
:101C10009432904203D002F58062904203D123F4C3
:101C20004073CA68134323F080034A691343036077
:101C30008B68C3620B688362044B984202D0012315
:101C4000436170470B690363F9E700BF002C014053
:101C500040B310B5044690F83D30F3B1022384F848
:101C60003D30214651F8040BFFF7B8FF012384F8FB
:101C7000463084F83E3084F83F3084F8403084F8B1
:101C8000413084F8423084F8433084F8443084F89A
:101C9000453084F83D30002010BD80F83C30FFF71F
:101CA000F9FCDBE70120704740B310B5044690F81B
:101CB0003D30F3B1022384F83D30214651F8040B46
:101CC000FFF78CFF012384F8463084F83E3084F817
:101CD0003F3084F8403084F8413084F8423084F852
:101CE000433084F8443084F8453084F83D30002097
:101CF00010BD80F83C30FFF7AEFEDBE701207047F7
:101D0000002857D070B50D46044690F83D30002BA2
:101D10004BD0022384F83D302268936823F480433B
:101D200023F007039360214651F8040BFFF756FF99
:101D300021688A688B690E6A2868104323F4407C06
:101D40002CF0030CAA68AB6942EA032343EA0C03B4
:101D500023F47C4323F0FC03EA69D5F80CC04CEA79
:101D6000022C4CEA030C2A6A13032A6943EA021381
:101D700043EA0C0326F022066A686D6942EA0512FE
:101D80003243886021688B6123681A62012384F8DA
:101D9000463084F83E3084F83F3084F8423084F88E
:101DA000433084F83D30002070BD80F83C30FFF7B0
:101DB000A1FCAEE70120704730B4036A026A22F04A
:101DC000100202624468826922F4E6420D6842EA27
:101DD000052223F020038D6843EA05130E4DA84227
:101DE00009D00D4DA8420ED0446082614A688263DA
:101DF000036230BC704723F08003CD6843EA0513CB
:101E000023F04003EDE724F440644D6944EA85047F
:101E10008D6944EA8504E7E7002C014038B590F865
:101E20003C30012B66D004460D46012380F83C303F
:101E30000C2A5AD8DFE802F0075959591B59595949
:101E40003059595944000068FFF706FD226893692C
:101E500043F0080393612268936923F004039361BC
:101E60002268936929690B43936100203EE0006872
:101E7000FFF7A2FF2268936943F40063936122682D
:101E8000936923F48063936122689369296943EA23
:101E900001239361002029E00068FFF70BFD226811
:101EA000D36943F00803D3612268D36923F00403A4
:101EB000D3612268D36929690B43D361002015E0FF
:101EC0000068FFF729FD2268D36943F40063D361FA
:101ED0002268D36923F48063D3612268D3692969B6
:101EE00043EA0123D361002000E00120002384F8AD
:101EF0003C3038BD0220FCE710B4846824F47F4CE9
:101F000042EA03220A4342EA0C02826010BC704794
:101F100090F83C30012B78D010B50446012380F8AE
:101F20003C30022380F83D300268936823F47F43FD
:101F300023F0770393600B68602B4CD029D8402B9B
:101F400054D00CD9502B22D1CA6849680068FFF7D9
:101F500007FD50212068FFF728FD002005E0202B19
:101F60000DD009D9302B0AD00120012384F83D304F
:101F7000002384F83C3010BD0BB1102B05D119465D
:101F80002068FFF712FD0020EFE70120EDE70120B8
:101F9000EBE7B3F5805F34D0B3F5005F0CD1CB68CD
:101FA0004A6889680068FFF7A7FF2268936843F4CE
:101FB000804393600020D8E7702B24D1CB684A6817
:101FC00089680068FFF798FF2268936843F07703F9
:101FD00093600020C9E7CA6849680068FFF7D2FC2F
:101FE00060212068FFF7E1FC0020BEE7CA6849686D
:101FF0000068FFF7B5FC40212068FFF7D6FC002001
:10200000B3E70020B1E70120AFE70220704701F0FD
:102010001F01012303FA01FC036A23EA0C03036294
:10202000036A02FA01F10B430362704710B50446DC
:10203000084651BB94F83E30DBB2013B18BF012388
:10204000002B5BD1002839D1022384F83E300122D5
:1020500001462068FFF7DBFF23682A4A93423DD000
:102060002368284A93423ED0B3F1804F3BD0A2F57B
:102070009432934237D002F58062934233D01A688B
:1020800042F001021A60002039E0042908D0082932
:102090000DD094F84130DBB2013B18BF0123CFE7EC
:1020A00094F83F30DBB2013B18BF0123C8E794F836
:1020B0004030DBB2013B18BF0123C1E7042805D043
:1020C000082807D0022384F84130C0E7022384F8AF
:1020D0003F30BCE7022384F84030B8E75A6C42F442
:1020E00000425A64BCE79A6802F00702062A07D049
:1020F0001A6842F001021A60002000E0012010BDC1
:102100000020FCE7002C014038B5044690F83E0062
:10211000C0B294F83F3094F84220D2B294F843C051
:102120000D46B1B9012849D1012A48D1022384F8CA
:102130003E3084F842307DB3042D39D00122002195
:102140002068FFF764FF012204212068FFF75FFF8A
:1021500027E0DBB25FFA8CFC042912D0012833D1CE
:10216000012B2CD1012A31D1BCF1010F30D1022336
:1021700084F83E3084F83F3084F8423084F84330AD
:10218000D9E7012B1CD1BCF1010F1BD1022384F82C
:102190003F3084F84330CEE7012200212068FFF76A
:1021A00036FF2268136843F001031360002006E045
:1021B000012204212068FFF72AFFF2E7012038BD41
:1021C0000120FCE71846FAE70120F8E71846F6E791
:1021D0001046F4E790F83C30012B2CD010B40123CA
:1021E00080F83C30022380F83D3003685A689C68D0
:1021F00022F0700C0A6842EA0C025A6003680F4A27
:1022000093420AD0B3F1804F07D0A2F594329342A3
:1022100003D002F58062934204D124F080044A681E
:1022200014439C60012380F83D30002380F83C304B
:10223000184610BC70470220704700BF002C0140B8
:102240007047704710B504460E4B18784FF47A73F8
:10225000B3FBF0F30C4A1068B0FBF3F000F07CFE27
:1022600068B90F2C01D901200AE0002221464FF065
:10227000FF3000F02BFE054B1C60002000E0012029
:1022800010BD00BF200000202800002024000020F6
:1022900008B5074A136843F010031360032000F0E9
:1022A00003FE0F20FFF7CEFFFFF7DCF9002008BD8B
:1022B00000200240034A1168034B1B780B44136053
:1022C000704700BFFC03002020000020014B18686D
:1022D000704700BFFC03002038B50446FFF7F6FF47
:1022E0000546B4F1FF3F02D0044B1B781C44FFF7B6
:1022F000EDFF401BA042FAD338BD00BF20000020F4
:1023000082B0084B1B68084AA2FB03235B0A00FB50
:1023100003F3019300BF019B5A1E0192002BF9D1D8
:1023200002B0704728000020D34D6210002800F052
:10233000F18170B582B00446036813F0010F2CD010
:10234000994B5B6803F00C03042B1DD0964B5B6824
:1023500003F00C03082B12D06368B3F5803F41D023
:10236000002B55D103F1804303F504331A6822F49E
:1023700080321A601A6822F480221A6037E08A4B91
:102380005B6813F4803FE7D0874B1B6813F4003F72
:1023900003D06368002B00F0BF81236813F0020FA5
:1023A00075D0814B5B6813F00C0F5FD07E4B5B6880
:1023B00003F00C03082B54D02369002B00F08A8013
:1023C0007A4B01221A60FFF781FF0546764B1B68A6
:1023D00013F0020F75D1FFF779FF401B0228F5D9E2
:1023E00003209EE1704A136843F4803313606368EE
:1023F00043B3FFF76BFF05466B4B1B6813F4003FBD
:10240000CBD1FFF763FF401B6428F5D9032088E197
:10241000B3F5A02F09D0644B1A6822F480321A60F9
:102420001A6822F480221A60E1E703F18043A3F5E1
:102430003C331A6842F480221A601A6842F48032EF
:102440001A60D4E7FFF742FF0546574B1B6813F4A9
:10245000003FA2D0FFF73AFF401B6428F5D90320C4
:102460005FE1514B5B6813F4803FA5D14E4B1B6875
:1024700013F0020F03D02369012B40F04F814A4A29
:10248000136823F0F803616943EAC103136023680A
:1024900013F0080F33D0A369002B5CD0434B01220B
:1024A000C3F88024FFF712FF05463F4B5B6A13F029
:1024B000020F21D1FFF70AFF401B0228F5D90320A4
:1024C0002FE1394A136823F0F803616943EAC10335
:1024D0001360DCE7354B00221A60FFF7F7FE054674
:1024E000314B1B6813F0020FD1D0FFF7EFFE401BFA
:1024F0000228F5D9032014E10120FFF701FF23682A
:1025000013F0040F00F09680274BDB6913F0805F17
:1025100034D1254BDA6942F08052DA61DB6903F08D
:1025200080530193019B0125214B1B6813F4807F8D
:1025300026D0E368012B3DD0002B53D103F180431B
:1025400003F504331A6A22F001021A621A6A22F0B1
:1025500004021A6233E0154B0022C3F88024FFF70F
:10256000B5FE0546104B5B6A13F0020FC7D0FFF7AC
:10257000ADFE401B0228F5D90320D2E00025D3E7A9
:102580000B4A136843F480731360FFF79FFE0646FF
:10259000074B1B6813F4807FCBD1FFF797FE801B9E
:1025A0006428F5D90320BCE000100240000042423C
:1025B000007000405F4A136A43F001031362E3684E
:1025C00033B3FFF783FE06465A4B1B6A13F0020F24
:1025D0002FD1FFF77BFE801B41F288339842F3D95D
:1025E00003209EE0052B09D0524B1A6A22F001020B
:1025F0001A621A6A22F004021A62E0E74D4B1A6A64
:1026000042F004021A621A6A42F001021A62D6E724
:10261000FFF75CFE0646474B1B6A13F0020F08D01B
:10262000FFF754FE801B41F288339842F3D9032010
:1026300077E0E5B9E369002B72D03E4A526802F0B8
:102640000C02082A56D0022B17D03B4B00221A66E8
:10265000FFF73CFE0446374B1B6813F0007F47D062
:10266000FFF734FE001B0228F5D9032059E0314A58
:10267000D36923F08053D361DCE72F4B00221A6625
:10268000FFF724FE05462B4B1B6813F0007F06D096
:10269000FFF71CFE401B0228F5D9032041E0236A06
:1026A000B3F5803F1AD023494B6823F47413226A90
:1026B000606A024313434B601F4B01221A66FFF707
:1026C00005FE04461B4B1B6813F0007F0ED1FFF77D
:1026D000FDFD001B0228F5D9032022E0154A5368AE
:1026E00023F40033A1680B435360DCE7002018E0BB
:1026F000002016E0012B16D00E4B5B6803F48031EE
:10270000226A914211D103F47013626A93420ED18E
:10271000002006E001207047012002E0012000E0D7
:10272000002002B070BD0120FBE70120F9E7012085
:10273000F7E700BF00100240000042420F4B5B6809
:1027400003F00C02082A01D00D487047C3F38342FE
:102750000C49885C13F4803F0BD0084B5B68C3F3D3
:102760004043094AD35C064A02FB00F0B0FBF3F099
:102770007047064B03FB00F0704700BF001002409B
:1027800000127A002C7300083C73000800093D0019
:10279000002800F0A08070B50D460446524B1B681F
:1027A00003F007038B420BD24F4A136823F0070351
:1027B0000B431360136803F007038B4240F08D80D6
:1027C000236813F0020F17D013F0040F04D0474A08
:1027D000536843F4E0635360236813F0080F04D098
:1027E000424A536843F460535360404A536823F0AD
:1027F000F003A1680B435360236813F0010F31D03D
:102800006368012B20D0022B25D0384A126812F0C1
:10281000020F64D035494A6822F0030213434B602B
:10282000FFF754FD0646314B5B6803F00C0362680A
:10283000B3EB820F16D0FFF749FD801B41F28833BE
:102840009842F0D9032045E0284A126812F4003F6C
:10285000E0D101203EE0254A126812F0007FD9D174
:10286000012037E0204B1B6803F00703AB420AD975
:102870001D4A136823F007032B431360136803F00A
:102880000703AB422DD1236813F0040F06D0174A7B
:10289000536823F4E063E1680B435360236813F04B
:1028A000080F07D0114A536823F46053216943EAA3
:1028B000C1035360FFF742FF0C4B5B68C3F3031384
:1028C0000B4AD35CD8400B4B18600B4B1868FFF7D2
:1028D000B9FC002070BD012070470120FAE70120FB
:1028E000F8E70120F6E700BF002002400010024098
:1028F000407300082800002024000020014B1868C5
:10290000704700BF2800002008B5FFF7F7FF044B11
:102910005B68C3F30223034AD35CD84008BD00BF01
:10292000001002405073000808B5FFF7E7FF044BA2
:102930005B68C3F3C223034AD35CD84008BD00BF21
:10294000001002405073000870B582B00024A44605
:10295000A6E0804DAA4210D007D97F4DAA420CD0E4
:1029600005F58035AA4208D013E0A5F58015AA42E6
:1029700003D005F57025AA4207D18A68002A58D0ED
:10298000012A51D04361082403E0A5F58015AA422D
:10299000F3D0BEF1FF0F4ED80646BEF1FF0F4CD864
:1029A0004FEA8C0233680F25954023EA050304FAA9
:1029B00002F2134333604B6813F0805F6ED0674BB5
:1029C0009A6942F001029A619B6903F00103019345
:1029D000019B4FEA9C02951C614B53F825600CF05B
:1029E00003039D000F23AB4026EA03065D4B98428C
:1029F00029D003F58063984200F08E8003F5806350
:102A0000984200F08B8003F58063984219D004232C
:102A10001AE0CC68BDE7CC680434BAE7CC68083467
:102A2000B7E7CC680C34B4E703610824B1E70024AD
:102A3000AFE70424ADE7061DAFE7ACF10802920052
:102A4000B0E7032300E00023AB4033430232444DA0
:102A500045F822304B6813F4801F61D0424A9368D6
:102A600043EA0E0393604B6813F4001F5ED03E4AA6
:102A7000D36843EA0E03D3604B6813F4003F5BD086
:102A8000394A536843EA0E0353604B6813F4803F9E
:102A900058D0354A136843EA0E0313600CF1010C59
:102AA0000A6832FA0CF353D0012303FA0CF302EA5A
:102AB000030E33EA0202F1D14A68122A3FF649AF07
:102AC000122A3FF666AF01A555F822F07B290008CF
:102AD000132A00081D2A00082F2A0008932900083D
:102AE00093290008932900089329000893290008D6
:102AF00093290008932900089329000893290008C6
:102B000093290008932900089329000893290008B5
:102B1000172A0008232A0008012395E7022393E7D8
:102B2000114A936823EA0E0393609CE70E4AD36828
:102B300023EA0E03D3609FE70B4A536823EA0E0390
:102B40005360A2E7084A136823EA0E031360A5E75F
:102B500002B070BD000022100000311000100240D1
:102B60000000014000080140000401400AB1016179
:102B7000704709040161704730B40124056CAC4012
:102B8000C56B6C60046863604368102B05D00368F4
:102B900099600368DA6030BC704703689A60036824
:102BA000D960F8E760B310B402460168154B0B44D6
:102BB0001548A0FB03031B099B001364134BD3634D
:102BC000022382F82130086820F47F5020F0300082
:102BD000536894682343D468234314692343546996
:102BE000234394692343D469234303430B600020A8
:102BF0009063012382F8213082F8200010BC7047D6
:102C000001207047F8FFFDBFCDCCCCCC00000240C6
:102C100038B5044690F82000012832D0012084F80D
:102C2000200094F82100C0B2012804D0002384F8C9
:102C30002030022038BD022084F821000020A0634B
:102C40002568286820F0010028602046FFF794FFDF
:102C5000E36A5BB12268136843F00E0313602268D5
:102C6000136843F0010313600020E3E72268136850
:102C700023F0040313602268136843F00A0313600F
:102C8000EDE70220D6E790F82130DBB2022B06D028
:102C900004238363002380F82030012070470268FA
:102CA000136823F00E0313600268136823F0010316
:102CB0001360036CC16B012202FA03F34B6080F8CE
:102CC0002120002380F820301846704708B590F87E
:102CD0002130DBB2022B03D004238363012008BD23
:102CE0000268136823F00E0313600268136823F070
:102CF000010313600368194A934214D014329342BB
:102D00001FD0143293421ED0143293421ED014327C
:102D100093421ED01432934202D04FF0807203E0EF
:102D20004FF4801200E001220D4B5A60012380F81D
:102D30002130002380F82030436B6BB1984700208E
:102D4000CDE71022F0E74FF48072EDE74FF48052A8
:102D5000EAE74FF48032E7E70020C0E708000240CE
:102D60000000024038B5C36B1A6804682568016C1E
:102D700004238B40134235D015F0040F32D0236862
:102D800013F0200F03D1236823F0040323600368AA
:102D9000434A934214D01432934218D014329342CF
:102DA00017D01432934217D01432934217D01432F2
:102DB000934202D04FF0806203E04FF4800200E0C3
:102DC0000422384B5A60C36A03B1984738BD402289
:102DD000F7E74FF48062F4E74FF48042F1E74FF4F5
:102DE0008022EEE702238B4013423CD015F0020F05
:102DF00039D0236813F0200F06D1236823F00A038B
:102E00002360012380F821300368254A934214D0BF
:102E1000143293421CD0143293421BD0143293428A
:102E20001BD0143293421BD01432934202D04FF085
:102E3000007203E04FF4001200E00222194B5A60C6
:102E4000002380F82030836A002BBFD09847BDE76D
:102E50002022F3E74FF40072F0E74FF40052EDE761
:102E60004FF40032EAE7082303FA01F11142ADD032
:102E700015F0080FAAD0236823F00E032360026C1C
:102E8000C16B012303FA02F24A60836380F82130A8
:102E9000002380F82030036B002B97D0984795E7EC
:102EA0000800024000000240074AD36823F4E063B0
:102EB0001B041B0C000200F4E060034343F0BF63FB
:102EC00043F40033D360704700ED00E000B5194BC8
:102ED000DB68C3F30223C3F1070CBCF1040F28BF66
:102EE0004FF0040C03F1040EBEF1060F18D9033B9A
:102EF0004FF0FF3E0EFA0CFC21EA0C0199400EFA4D
:102F000003F322EA0303194300280BDB0901C9B2CA
:102F100000F1604000F5614080F800135DF804FBAB
:102F20000023E5E700F00F000901C9B2024B195474
:102F3000F4E700BF00ED00E014ED00E0002807DB3F
:102F400000F01F02400901239340024A42F820305A
:102F5000704700BF00E100E00138B0F1807F0BD284
:102F60004FF0E0235861054AF02182F82310002039
:102F7000986107221A6170470120704700ED00E058
:102F8000026802F10C0353E8003F23F0C0030C3247
:102F900042E800310029F3D1202380F84130704706
:102FA000026802F10C0353E8003F23F490730C32E3
:102FB00042E800310029F3D1026802F1140353E81A
:102FC000003F23F00103143242E800310029F3D11D
:102FD000036B012B05D0202380F8423000230363CC
:102FE0007047026802F10C0353E8003F23F010031E
:102FF0000C3242E800310029F3D1ECE790F841307F
:10300000DBB2212B01D0022070478368B3F5805FCB
:1030100017D0036A5A1C02621A7803685A60C38C7C
:103020009BB2013B9BB2C3844BB90268D36823F0C7
:103030008003D3600268D36843F04003D36000206C
:1030400070470369002BE4D1036A1B880268C3F34D
:1030500008035360036A02330362E0E710B50446D5
:103060000268136923F44053C1680B4313618368FA
:103070000269134342691A430168CB6823F4B053D1
:1030800023F00C031343CB600268536923F44073AD
:1030900081690B4353610268134B9A4220D0FFF7BA
:1030A00033FC024602EB820202EB820263689B0061
:1030B000B2FBF3F20D48A0FB02314909642303FB84
:1030C00011231B013233A0FB03235B0903F0F00241
:1030D00002EB011203F00F03216813448B6010BD53
:1030E000FFF722FC0246DDE7003801401F85EB5167
:1030F0002DE9F84305460F4616469946DDF820802F
:103100002C68246837EA04030CBF4FF0010C4FF021
:10311000000CB4452DD1B8F1FF3FF1D0B8F1000F4C
:1031200005D0FFF7D3F8A0EB09004045E8D92A689D
:1031300002F10C0353E8003F23F4D0730C3242E851
:1031400000310029F3D12A6802F1140353E8003F4B
:1031500023F00103143242E800310029F3D1202387
:1031600085F8413085F84230002385F8403003204F
:1031700000E00020BDE8F88360B310B5044690F885
:10318000413013B3242384F841302268D36823F4F8
:103190000053D3602046FFF761FF2268136923F4D0
:1031A000904313612268536923F02A035361226814
:1031B000D36843F40053D36000206064202384F874
:1031C000413084F84230606310BD80F84030FEF733
:1031D000E5FAD7E7012070472DE9F04182B01E469D
:1031E00090F84130DBB2202B4BD104460D4690467F
:1031F00000294AD00AB9012044E000234364212376
:1032000080F84130FFF762F80746A4F82480A4F85C
:103210002680A368B3F5805F02D04FF000080FE06E
:103220002369FBB14FF000080AE038F8023B22683E
:10323000C3F308035360E28C92B2013A92B2E28483
:10324000E38C9BB28BB100963B4600228021204646
:10325000FFF74EFFD8B9002DE7D015F8012B2368F2
:103260005A60E8E7A8460025EAE700963B460022B8
:1032700040212046FFF73CFF58B9202384F8413015
:1032800000E0022002B0BDE8F0810120FAE703204F
:10329000F8E70320F6E7704708B50168CA6822F02E
:1032A0004002CA60202280F84120FFF7F4FF00208E
:1032B00008BD70477047704710B5446A23685A6963
:1032C00094F84130DBB2212B10D023685A6902F008
:1032D000400294F84230DBB2222B11D0636C43F0F1
:1032E000100363642046FFF7E6FF10BD02F0800282
:1032F000002AEAD00023E3842046FFF741FEE4E7FA
:10330000002AEBD00023E3852046FFF749FEE5E7DE
:1033100008B5406A0023C385C384FFF7CCFF08BD0E
:1033200090F84230DBB2222B69D18368B3F5805F1D
:103330004FD0826AB3F5805F04D0002B56D1036969
:10334000002B53D103685B681370836A0133836277
:10335000C38D9BB2013B9BB2C385002B51D100B5FD
:1033600083B00268D36823F02003D3600268D36877
:1033700023F48073D3600268536923F0010353611F
:10338000202380F8423000234363036B012B33D1A9
:1033900000230363026802F10C0353E8003F23F0AB
:1033A00010030C3242E800310029F3D103681A6897
:1033B00012F0100F06D0002201921A6801925B6889
:1033C0000193019B818DFDF7BFFF002003B05DF8E5
:1033D00004FB0269002AACD1826A03685B68C3F30C
:1033E00008031380836A02338362B1E703685B6872
:1033F00003F07F031370A8E7FFF75BFFE5E7022008
:10340000704700207047000030B583B00446026862
:103410001368D068516913F00F0505D113F0200F20
:1034200002D010F0200F19D12DB111F0010119D1E6
:1034300010F4907F16D1216B01297DD013F0800FFD
:1034400003D010F0800F40F0188113F0400F03D02C
:1034500010F0400F40F0158103B030BD2046FFF75B
:103460005FFFF9E713F0010F06D010F4807F03D05F
:10347000626C42F00102626413F0040F04D019B1CF
:10348000626C42F00202626413F0020F04D019B1C0
:10349000626C42F00402626413F0080F07D010F06F
:1034A000200F00D119B1626C42F008026264626CB4
:1034B000002AD1D013F0200F02D010F0200F29D114
:1034C00023685B6903F04003626C12F0080F00D1BF
:1034D00063B32046FFF764FD23685B6913F0400F78
:1034E00020D0226802F1140353E8003F23F0400388
:1034F000143242E800310029F3D1E36B73B1634A1F
:103500005A63E06BFFF7E2FB0028A5D0E06B436B4A
:103510009847A1E72046FFF703FFD1E72046FFF7D2
:10352000CAFE99E72046FFF7C6FE95E72046FFF75B
:10353000C2FE002363648FE713F0100F3FF47EAFE9
:1035400010F0100F3FF47AAF00230193136801933A
:1035500053680193019B536913F0400F51D0E26B04
:1035600013685B689BB2002B3FF476AFA18D994244
:103570007FF672AFE3859369202B37D0226802F182
:103580000C0353E8003F23F480730C3242E800310F
:103590000029F3D1226802F1140353E8003F23F01D
:1035A0000103143242E800310029F3D1226802F10C
:1035B000140353E8003F23F04003143242E8003183
:1035C0000029F3D1202384F84230002323632268AA
:1035D00002F10C0353E8003F23F010030C3242E8E1
:1035E00000310029F3D1E06BFFF74DFB0223636349
:1035F000A18DE38D9BB2C91A89B22046FDF7A4FEC6
:103600002AE7A18DE38D9BB2C91A89B2E38D9BB2E3
:10361000002B3FF421AF00293FF41EAF226802F1D6
:103620000C0353E8003F23F490730C3242E800305F
:103630000028F3D1226802F1140353E8003F23F07D
:103640000103143242E800300028F3D1202384F82B
:10365000423000232363226802F10C0353E8003F49
:1036600023F010030C3242E800300028F3D102238B
:1036700063632046FDF768FEEEE62046FFF7BEFCDA
:10368000EAE62046FFF708FEE6E600BF1133000831
:1036900008B5406A01234363036B012B02D0FFF797
:1036A00009FE08BD818D4908FDF74EFEF9E708B512
:1036B0000346406A1B681B6813F0200F2BD10023C0
:1036C000C385026802F10C0353E8003F23F48073C2
:1036D0000C3242E800310029F3D1026802F11403F0
:1036E00053E8003F23F00103143242E8003100297F
:1036F000F3D1026802F1140353E8003F23F04003C2
:10370000143242E800310029F3D1202380F84230FE
:10371000036B012B07D000234363036B012B0FD0F6
:10372000FFF7C7FD08BD026802F10C0353E8003F34
:1037300023F010030C3242E800310029F3D1EAE70C
:10374000818DFDF701FEEDE730B583B004461346E9
:103750008162828500254564222280F84220C26B66
:103760001F489062E26B1F48D062E26B1E481063F4
:10377000E26B556320680A46011DE06BFFF748FACB
:10378000019523681A6801925B680193019B236984
:103790005BB1226802F10C0353E8003F43F48073ED
:1037A0000C3242E800310029F3D1226802F11403FF
:1037B00053E8003F43F00103143242E8003100298E
:1037C000F3D1226802F1140353E8003F43F04003B1
:1037D000143242E800310029F3D1002003B030BD9B
:1037E000AF36000891360008B932000890F8423030
:1037F000DBB2202B29D110B582B0044639B312B9FF
:10380000012002B010BD0123036300234363FFF7CF
:103810009BFF0028F5D1236B012B01D00120F0E79D
:103820000023019323681A6801925B680193019B4E
:10383000226802F10C0353E8003F43F010030C32FE
:1038400042E800310029F3D1DBE702207047012074
:10385000D7E770470B7D032B0ED8DFE803F0020596
:10386000080B0B69586370470B69986370470B69C5
:10387000D86370470B6918647047C368586A80083A
:1038800070472DE970430446FFF7F7FF0546A06334
:1038900094F8303083B9E26B90420DD2111AB1F531
:1038A0007A5F09D9C2F57F523F3293B2A4F8402023
:1038B0000344A4F8403005E0012B36D0E36BEB1A4B
:1038C000A4F84030D4F83480B4F940603046FDF7B5
:1038D00005FA01464046FDF74BF9FCF7A5FD804689
:1038E0008946208CFCF78EFD02460B464046494631
:1038F000FCF71CFFFDF7E8F8A062B4F94200301AAB
:10390000FCF780FD80468946608CFCF77BFD024613
:103910000B4640464946FCF709FFFDF7D5F8E06243
:10392000E563A4F84260BDE87083E36B9D42C5D9AE
:10393000EA1AB2F57A5FC1D9A5F57F523F3A91B242
:10394000A4F84020CB1AA4F84030BBE72DE9F84397
:1039500004460D4686683046FDF7D0FB10BB67690C
:1039600029463846FDF7ACFBE0B9D4F80C80414657
:103970003046FDF79BFBC8B1D4F81090494640464D
:10398000FDF794FB90B129463846FDF7F1F805465E
:1039900049463846FDF7ECF801462846FDF7A6FAF9
:1039A000606001E000236360BDE8F883D4F8109004
:1039B00049464046FDF77AFB98B149463846FDF73F
:1039C00075FB70B131462846FDF7D2F80546314601
:1039D0004046FDF7CDF801462846FDF787FA6060BE
:1039E000E2E741463046FDF761FBB8B1294648465B
:1039F000FDF784FB18B14FF07E536360D4E729468E
:103A00003846FDF7B5F8054649463846FDF7B0F8A3
:103A100001462846FDF76AFA6060C5E74946384620
:103A2000FDF744FBB8B129464046FDF749FB18B104
:103A30004FF07E536360B7E731462846FDF798F8AC
:103A4000054631464046FDF793F801462846FDF706
:103A50004DFA6060A8E729464046FDF74FFB70B17C
:103A600031462846FDF784F8054631464046FDF7C5
:103A70007FF801462846FDF739FA606094E7294649
:103A80004846FDF71DFB70B129463846FDF770F832
:103A9000054649463846FDF76BF801462846FDF7CE
:103AA00025FA606080E74FF07E5363607CE738B5AD
:103AB000054607E0E9682046FFF748FFA469002CA7
:103AC000F8D16D690DB12C69F9E738BD2DE9F041E8
:103AD00080461DE064684CB123681D683146284665
:103AE000FDF70CFB0028F5D12E46F3E7D8F804408B
:103AF00001E03D6064684CB127683D683146284666
:103B0000FDF7DEFA0028F4D03546F2E7D8F8088051
:103B1000B8F1000F04D0D8F800404FF07E56DAE735
:103B2000BDE8F08138B5044681684069FDF720F8AA
:103B30000546E1682069FDF71BF8014664682846E0
:103B4000FDF718F801462046FDF71CF94FF07C51AF
:103B5000FDF718F938BD2DE9F84381462BE02046E2
:103B6000FFF7E0FF0546D4F8088041466069FCF79E
:103B7000FFFF4FF07C51FDF705F901464046FCF789
:103B8000F9FF804629463046FCF7F4FF06464146D9
:103B90002846FDF7F7F801463846FCF7EBFF0746E5
:103BA000A469002CDBD131463846FDF79FF9C9F8EE
:103BB0000C00D9F81490B9F1000F04D0D9F81040D6
:103BC00000263746EDE7BDE8F8830EE01A680021CD
:103BD00011605B68002BF9D1436803E01A6800218B
:103BE00011605B68002BF9D1806808B10368F1E7C8
:103BF000704710B50446082000F06EFB04340460E2
:103C00000022426010BD38B505460C460C2000F07D
:103C100063FB056044600022826038BD2DE9F041FD
:103C200080460F4616461D461C2000F055FB0446F4
:103C3000414601F0CDF8A760E6602561069B63610F
:103C4000002363600023A3612046BDE8F08170B5C6
:103C500006460D46182000F03FFB0446314601F0B1
:103C6000B7F80023E360256100236361204670BD3F
:103C700010B5044601460020FFF7ECFD0022218923
:103C80002068FEF773FF002261896068FEF76EFF0F
:103C900010BD38B50C46C568888CFDF71FF829465D
:103CA000FDF770F80546606CFDF718F82946FCF73B
:103CB00061FFFDF72DFA6064638B984214DD636445
:103CC000656C002DB8BF6D42ADB2A37FAB4200D989
:103CD000002594F8303063B1012B15D021462846D9
:103CE000FFF7B8FDDDB138BD0028E9DA00236364D1
:103CF000E6E7012221892068FEF738FF002261896A
:103D00006068FEF733FFE9E7002221892068FEF7AB
:103D10002DFF012261896068FEF728FFDEE720465B
:103D2000FFF7A6FFDFE7000070B58AB00D4600245C
:103D3000069407940894099417E0454B9A6942F059
:103D400004029A619B6903F004030193019B331DF4
:103D500035F81330069301230793099306A955F804
:103D60002600FEF7F1FD0134E4B2012C45D82646C9
:103D7000231D002235F8131055F82400FEF7F6FE37
:103D800055F82430334A9342D7D0334A934213D064
:103D9000324A93421BD0324A934223D0314A934253
:103DA000D5D12B4B9A6942F040029A619B6903F08E
:103DB00040030593059BCAE7254B9A6942F0080228
:103DC0009A619B6903F008030293029BBFE7204BB3
:103DD0009A6942F010029A619B6903F01003039301
:103DE000039BB4E71A4B9A6942F020029A619B69DF
:103DF00003F020030493049BA9E7AB8BE88A00FB44
:103E000003F3288B03FB00F0FCF7FCFA0CA3D3E9C7
:103E10000023FCF78BFCFCF737FE80B22884688413
:103E2000688BFCF7EFFA08A3D3E90023FCF754FBF7
:103E3000FCF72AFEA8840AB070BD00BFAFF3008073
:103E400000000000004CED409A9999999999E13F42
:103E50000010024000080140000C01400010014029
:103E60000014014000180140D0B50446838B8B42FA
:103E700003DB5B428B4200DC0B46002B1FDB002286
:103E800084F8302094F8312012B9012284F83120CE
:103E9000E08A03FB00F0FCF7B5FA06460F46208BDC
:103EA000FCF7B0FA32463B46FCF716FB06A3D3E913
:103EB0000023FCF73BFCFCF707FE6063D0BD01224A
:103EC00084F83020DEE700BF00000000004CED4029
:103ED0002DE9F04FA3B006900791A74EA74FA84D2C
:103EE000009533463A463946A648FFF797FE0390B9
:103EF0004FF00008CDF800802B462A463146A248F4
:103F0000FFF78CFE0490DFF884A2CDF800A04346B2
:103F1000424629469E48FFF781FE8146DFF874B28B
:103F2000CDF800B05346524641469B48FFF776FE17
:103F300005464FF07E56009633465A4651469748FE
:103F4000FFF76CFE039B049A9A61C2F81890C9F8B7
:103F50001850A8614FF03F49CDF800903B463A46D3
:103F600039468848FFF75AFE0546CDF800804B4693
:103F70004A4639468448FFF751FE04904FF07C5B77
:103F8000CDF800B04346424649468148FFF746FE19
:103F9000824600965B465A4641467F48FFF73EFE02
:103FA000814600963346324659467C48FFF736FE36
:103FB000049AAA61C2F818A0CAF81890C9F81800A3
:103FC000DFF8DC91CDF800903B463A4639466D4823
:103FD000FFF724FE0490DFF8CCA1CDF800A04B46FB
:103FE0004A4639467048FFF719FE05906F4FCDF8E5
:103FF00000803B463A4649466348FFF70FFE81463C
:10400000CDF800A04346424639466148FFF706FE18
:104010000746DFF89CB1CDF800B053465246414602
:104020005D48FFF7FBFD804600965B465A465146C9
:104030006048FFF7F3FD8246009633463246594604
:104040005648FFF7EBFD8346049B059A9A61C2F838
:104050001890C9F81870C7F81880C8F818A0CAF8DE
:10406000180003995448FFF7F2FD064629465348C5
:10407000FFF7EDFD7061DFF848C10FCEACE80F002F
:1040800096E803008CE8030004994E48FFF7DFFD33
:10409000DFF834C106460FCEACE80F0096E8030007
:1040A0008CE80300049B09930A93059A0B92CDF8C0
:1040B00030900D970E930F92CDF840901197CDF858
:1040C00048801392CDF850901597CDF85880CDF8D0
:1040D0005CA0CDF860901997CDF86880CDF86CA001
:1040E000CDF870B01D97CDF87880CDF87CA0CDF8D4
:1040F00080B0CDF884B04FF000092B464D46A04665
:10410000994626E0C8F80800A4690136F6B2804650
:10411000DCB14846FFF76DFD07462046FFF769FD15
:10412000786005EB8503334422AA02EB830353F83E
:10413000640CFFF75EFD01463846FFF764FD002D75
:10414000E0D1002EDED10290DEE7D9F818900135DB
:10415000EDB2B9F1000F02D0039C0026D8E71B4B4B
:10416000029A07CA83E8070007990698FFF7DCFD63
:1041700023B0BDE8F08F00BF9A9919BF000080BF3F
:104180009A9999BE587300085C7300089A99993EF1
:10419000607300089A99193F6473000868730008F7
:1041A00083C02ABFFA7EAA3E6C730008FA7EAABEBC
:1041B00083C02A3F70730008747300087C73000882
:1041C000000400208473000818040020300400203C
:1041D000F8B504460D4616461F46FFF752FBA36A84
:1041E000EB606B69E26ADA602846FFF760FC3846EC
:1041F000FFF76CFC3046FFF7AEFC3846FFF7E5FCF6
:1042000021463046FFF745FDF8BD10B50C46114676
:104210001A46FFF7EBFA2268136823F004031360D1
:1042200010BD38B505460C460846FBF791FF6423E0
:1042300082B221462846FEF7CFFF38BDFFF709FBC3
:104240000B480C490C4A002302E0D458C4500433F4
:10425000C4188C42F9D3094A094C002301E01360C9
:104260000432A242FBD300F013F8FDF797F9704730
:104270000000002044020020B4770008440200201F
:1042800050040020FEE70A22002100F051BE000089
:1042900070B500260C4D0D4C641BA410A64209D12C
:1042A00003F00CF800260A4D0A4C641BA410A64229
:1042B00005D170BD55F8043B98470136EEE755F837
:1042C000043B98470136F2E7AC770008AC7700086A
:1042D000AC770008B0770008024B0146186800F080
:1042E00073B800BF7400002003460244934200D11B
:1042F000704703F8011BF9E738B50546002940D09F
:1043000051F8043C0C1F002BB8BFE41801F0BCFCB2
:104310001C4A136833B9636014602846BDE838400E
:1043200001F0B8BCA34208D9206821188B4201BF14
:1043300019685B6809182160EDE71A465B680BB1E4
:10434000A342FAD911685018A0420BD12068014449
:10435000501883421160E0D118685B680144116015
:104360005360DAE702D90C232B60D6E720682118C6
:104370008B4201BF19685B68091821606360546053
:10438000CBE738BD3C04002070B50E4E0C463168BA
:10439000054611B900F0ECFC30602146284600F0DB
:1043A000E7FC431C0AD0C41C24F00304A04207D03D
:1043B000211A284600F0DCFC013001D14FF0FF3417
:1043C000204670BD400400202DE9F041CD1C25F0B1
:1043D000030508350C2D38BF0C25002D074601DBE1
:1043E000A94205D90C2300263B603046BDE8F08188
:1043F0002E4E01F049FC33681C4634BB2946384632
:10440000FFF7C2FF431C04464DD134682646002EF8
:1044100040D123683146384604EB030800F0A8FC7D
:1044200080453AD1216803356D1A25F0030508351A
:104430000C2D38BF0C2538462946FFF7A5FF013063
:104440002BD023682B4423600EE02268521B1ED41D
:104450000B2A16D96119A342256018BF59606368F9
:1044600008BF316062514B60384604F10B0601F021
:1044700011FC26F00706231DF21AB6D09B1BA35091
:10448000B3E76268A3420CBF32605A60ECE7234690
:104490006468B2E734467668B9E70C2338463B6077
:1044A00001F0F8FBA1E72560DEE700BF3C04002037
:1044B000002B2DE9F0471F46BBBF03F100431F4609
:1044C00000232D2388B01446129A109D1370149B5C
:1044D000DDF84CA023F02008B8F1460F05D0B8F164
:1044E000450F00D10135022300E0032307AA0492FF
:1044F00006AACDE902A2CDE9003522463B4600F0EE
:10450000AFFDB8F1470F064602D1119BDB0722D55C
:10451000B8F1460F06EB050910D13378302B0AD1DC
:104520000022002320463946FCF73EFA18B9C5F1AF
:104530000105CAF80050DAF800309944002200233F
:1045400020463946FCF730FA08B1CDF81C903022ED
:10455000079B4B4507D33046079B159A9B1B13605F
:1045600008B0BDE8F087591C07911A70F0E70346C0
:10457000F7B5002903F8022BB6BF2D222B224942A2
:10458000092942702BDD0DF10704A4460A2791FB8F
:10459000F7F60A46A64607FB1615632A05F130050D
:1045A000314604F1FF340EF8015CF0DC3031AEF13D
:1045B000020504F8011C2946441C61450AD30DF18B
:1045C0000902A2EB0E02654588BF00221344181AA7
:1045D00003B0F0BD11F8012B04F8012FEDE73023F3
:1045E00030318370C170031DF1E700002DE9F04FF9
:1045F00091B00C46DDF8688016461F46054601F06E
:1046000023FB036818460993FBF7A2FD00230E93D2
:10461000D8F800300A90073323F0070303F10802AB
:1046200094F81890D4F800B0C8F80020D3E900231B
:10463000C4E91223D4E9128A2AF000430B934FF005
:10464000FF3240469C4B0B99FCF7E0F970BB4FF0F2
:10465000FF324046984B0B99FCF7BAF930BB002269
:10466000002340465146FCF7A9F910B12D2384F8E8
:104670004330924B9248B9F1470F94BF9846804619
:1046800003234FF0000A23612BF004032360334619
:104690002146284600970FAA00F0D4F9013040F0D7
:1046A00090804FF0FF3011B0BDE8F08F4246534686
:1046B00040465146FCF7AAF948B1BAF1000FB8BF1D
:1046C0002D238048B8BF84F843307F4BD3E763681D
:1046D00009F0DF015A1C42D10623636000220692D2
:1046E0000EAACDE904920DAA4BF4806303920DF15A
:1046F0003302CDE9013223606368424600932846C5
:1047000053460B91FFF7D4FE0B99804647290D992C
:1047100008D1C81C02DB6368994240DDA9F1020997
:104720005FFA89F9B9F1650F1FD84A46013904F1DA
:1047300050000D91FFF71BFF0E9A82461318012AB5
:10474000236102DC2268D20701D5013323619DF881
:104750003330002B9BD02D2384F8433097E7472933
:10476000BCD1002BBAD10123B7E7B9F1660F18D13C
:10477000002963680BDD216113B92268D00702D5D7
:1047800001330B4423614FF0000AA165DFE713B941
:104790002268D20701D50233F4E70123F2E74FF094
:1047A00067090E9B994205DB23682161D807EAD58A
:1047B0004B1CE7E70029CCBF0122C1F102021344E0
:1047C000E0E723685A0507D4236942463146284664
:1047D000B84701302BD164E7B9F1650F40F2DD80B5
:1047E000D4E9120100220023FCF7DEF8002833D0C0
:1047F000012331462846354AB84701303FF451AFCE
:10480000DDE90D239A4202DB2368D8070FD5DDE9E5
:10481000092331462846B84701303FF442AF4FF0F4
:10482000000804F11A090E9B013B434509DC23688B
:104830009B0700F10281E0680F9B9842B8BF1846C1
:1048400031E701234A4631462846B84701303FF454
:1048500028AF08F10108E6E70D9B002B38DC0123A7
:1048600031462846194AB84701303FF41AAFDDE90E
:104870000D23134302D12368D907D8D5DDE90923D5
:1048800031462846B84701303FF40BAF4FF00009DE
:1048900004F11A0A0D9B5B424B4501DC0E9B94E729
:1048A0000123524631462846B84701303FF4F9AE5D
:1048B00009F10109EEE700BFFFFFEF7F90730008E9
:1048C000947300089C73000898730008A073000894
:1048D0000E9AA36D9A42A8BF1A46002A914637DC69
:1048E0004FF0000B29EAE97904F11A02D4F858A034
:1048F000AAEB09035B4533DCDDE90D239A423BDB80
:104900002368DA0738D40E9B0D99A3EB0A02A3EBB8
:1049100001099145A8BF9146B9F1000F34DC4FF071
:10492000000829EAE97904F11A0ADDE90D239B1A46
:10493000A3EB090343457FF77AAF01235246314683
:104940002846B84701303FF4ACAE08F10108ECE767
:104950001346314642462846B8470130C0D1A0E64A
:104960000123314628460B92B84701303FF499AEF7
:104970000B9A0BF1010BB9E73146DDE90923284613
:10498000B8470130BFD18CE64B463146284608EB8C
:104990000A02B8470130C2D183E60E9A012A01DC2F
:1049A000DB0737D50123424631462846B847013058
:1049B0003FF477AEDDE9092331462846B847013098
:1049C0003FF46FAED4E9120100220023FBF7ECFFA5
:1049D000D8B90E9B08F10102013B31462846B84781
:1049E00001300ED15DE601234A4631462846B847DC
:1049F00001303FF456AE08F101080E9B013B4345E0
:104A0000F1DC534604F15002E0E64FF0000804F1F7
:104A10001A09F2E701234246DFE701234A463146FD
:104A20002846B84701303FF43CAE08F10108E3687E
:104A30000F995B1A4345F0DCFDE64FF0000804F1E6
:104A40001909F4E72DE9F047164699468A680B697B
:104A500007469342B8BF1346336091F843200C4693
:104A6000DDF820800AB1013333602368990642BF24
:104A7000336802333360256815F0060506D104F16A
:104A8000190AE36832689B1AAB4228DC94F8432089
:104A9000131E226818BF012392062DD449463846BA
:104AA00004F14302C047013020D02368E56803F0D9
:104AB0000603042B18BF002532684FF00006A368D8
:104AC00008BFAD1A226908BF25EAE5759342C4BF45
:104AD0009B1AED181A34B5421AD1002008E00123C0
:104AE000524649463846C047013003D14FF0FF30A7
:104AF000BDE8F0870135C4E73020E11881F84300B4
:104B00005A1C94F845102244023382F84310C5E73A
:104B10000123224649463846C0470130E6D00136D7
:104B2000D9E700002DE9FF470F7E9146782F804698
:104B30000C469A460C9D01F1430207D8622F0AD811
:104B4000002F00F0D980582F00F0A48004F1420516
:104B500084F842703AE0A7F16303152BF6D801A15F
:104B600051F823F0BD4B0008D14B00084D4B000815
:104B70004D4B00084D4B00084D4B0008D14B000831
:104B80004D4B00084D4B00084D4B00084D4B0008A5
:104B9000DF4C0008014C0008C14C00084D4B0008D8
:104BA0004D4B0008014D00084D4B0008014C00081A
:104BB0004D4B00084D4B0008C94C00082B681A1DCE
:104BC0001B682A6004F1420584F842300123A4E006
:104BD00020682968060601F104030AD50E682B60D7
:104BE000002E03DA2D23764284F843300A235E48F0
:104BF00019E00E6810F0400F2B6018BF36B2EFE7D7
:104C00002B682068191D2960010601D51E6802E085
:104C10004606FBD51E886F2F0CBF08230A23524877
:104C2000002184F843106568002DA8BF2168A560A5
:104C3000A4BF21F0040121600EB9002D4DD015460E
:104C4000B6FBF3F103FB1167C75D05F8017D37463D
:104C5000BB420E46F4D9082B0BD12368DE0708D5DA
:104C6000236961689942DEBF302305F8013C05F1F4
:104C7000FF35521B22614B4621464046CDF800A02D
:104C800003AAFFF7DFFE01304CD14FF0FF3004B034
:104C9000BDE8F087344881F845702968236851F8E9
:104CA000046B29601D0614D5DF0744BF43F02003C1
:104CB00023601EB9236823F0200323601023AFE78D
:104CC000236843F0200323607823284884F8453084
:104CD000E3E7590648BFB6B2E6E71546BBE72B68DF
:104CE0002668181D6169286035061B6801D51960A2
:104CF00002E07006FBD51980002315462361BAE750
:104D00002B6800211A1D2A601D686268284600F081
:104D10009FFF08B1401B606063682361002384F833
:104D20004330A8E72A46494640462369D047013028
:104D3000ABD023689B0713D4E068039B9842B8BFAD
:104D40001846A4E70123324649464046D047013081
:104D50009BD00135E36803995B1AAB42F2DCEBE7C9
:104D6000002504F11906F5E7A2730008B3730008E3
:104D700038B50023054D044608462B6002F086FA3C
:104D8000431C02D12B6803B1236038BD44040020CA
:104D90000EB46FF0004100B59CB01DAB02900690C0
:104DA000079104910848094953F8042B05910068BC
:104DB00002A9019301F066FB0022029B1A701CB04D
:104DC0005DF804EB03B07047740000200802FFFF99
:104DD000034611F8012B03F8012B002AF9D1704783
:104DE000F0B508B9106888B104460F46204614F89B
:104DF000015B17F8016B1EB965B92846156005E01F
:104E0000B542F6D1002BF0D114600370F0BD1C4602
:104E10000CE015B90E4614F8013B16F8015BAB42E5
:104E2000F7D1002BF3D0002304F8013C1460EDE728
:104E30000123FFF7D5BF0000012B2DE9F047804685
:104E400001D0242B06D900F0F9FE162303600020C0
:104E5000BDE8F0870D46354F284615F8014BE65D55
:104E600016F00806F8D12D2C2FD101262C78851CA0
:104E7000002B57D0102B09D1302C07D1287800F007
:104E8000DF00582849D110236C780235002706F13D
:104E9000004E0EF1FF3EBEFBF3F9384603FB19EA64
:104EA000A4F1300CBCF1090F14D86446A34222DDF2
:104EB000002F1DDB81451BD301D1A24518DB012743
:104EC00000FB034015F8014BEAE72B2C04BF2C78BC
:104ED000851CCDE7A4F1410CBCF1190F01D8373C7A
:104EE000E4E7A4F1610CBCF1190F04D8573CDDE7ED
:104EF0004FF0FF37E6E7002F07DA22237046C8F8A5
:104F00000030002AA4D0691E05E006B14042002A04
:104F10009ED0002FF7D111609AE73024002BB5D135
:104F20000823B3E7302CA9D00A23AFE7C5730008E4
:104F300013460A46014602480068FFF77DBF00BFDE
:104F4000740000202DE9F74F03690C690746A3425E
:104F5000C0F28280013C00F1140501F1140805EB58
:104F60008403019358F8243055F8242001339A42E1
:104F7000B2FBF3F64FEA840B08EB840931D34FF010
:104F8000000E4046AC46F24650F8042B93B206FBA6
:104F900003E3120C4FEA134E9BB206FB02E2AAEBAC
:104FA0000303DCF800A04FEA124E1FFA8AFA5344BA
:104FB000DCF800A092B2C2EB1A4202EB23429BB291
:104FC00043EA024381454FEA224A4CF8043BDBD2D4
:104FD00055F80B302BB9019B043B9D421A462FD349
:104FE0003C61384601F0DAF8002825DB28464FF00E
:104FF000000C013658F8041BD0F800E08BB2ACEB83
:1050000003031FFA8EF213440A0CC2EB1E4202EB9A
:1050100023429BB243EA0243C1454FEA224C40F887
:10502000043BE7D255F8242005EB840322B9043B66
:105030009D421A460AD33C61304603B0BDE8F08F6A
:105040001268043B002ACBD1013CC6E71268043B3E
:10505000002AF0D1013CEBE70020EEE70000000061
:105060002DE9F04F16461F46446A99B00546CDE932
:105070000467DDF8948074B91020FFF72DF902461B
:10508000686220B9EA21A84BA84801F0FBFAC0E900
:1050900001440460C4606B6A196851B15A68012305
:1050A00093404A608B60284600F03AFE00226B6A0B
:1050B0001A603B1EAFBF0023012223F0004305937B
:1050C000A8BFC8F80030DDF81490994BB8BFC8F8F5
:1050D000002033EA090319D142F20F73249A1360B6
:1050E000C9F31303334300F07F85269B53B9914BDB
:1050F00022E0914B03930833269A1360039819B06A
:10510000BDE8F08F8B4B03930333F5E7DDE90434FF
:10511000CDE90C34DDE90C0100220023FBF744FC4F
:10512000804658B10123249A1360269B002B00F07F
:10513000588582481860431E0393DFE716AB01933E
:1051400017AB00932846DDE90C2301F0CFF8C9F333
:105150000A548346002C7FD0DDE90C010D9BA4F29C
:10516000FF34C3F3130343F07F5141F44011CDF8F2
:105170004C800022724BFAF7F7FF65A3D3E90023B6
:10518000FBF7AAF964A3D3E90023FAF7EFFF064679
:1051900020460F46FBF736F961A3D3E90023FBF75E
:1051A0009BF902460B4630463946FAF7DFFF0646C2
:1051B0000F46FBF741FC0022824600233046394669
:1051C000FBF7FCFB48B15046FBF71CF932463B4667
:1051D000FBF7EAFB08B90AF1FF3ABAF1160F58D803
:1051E000DDE90C01574B03EBCA03D3E90023FBF7BE
:1051F000E5FB00284FD000230AF1FF3A0F93169BDE
:105200001C1B631E099349BFC4F1010300230693CD
:10521000002354BF06930993BAF1000F3DDB099BAD
:10522000CDF838A05344099300230A93229B092BFD
:1052300000F28C80052BC4BF043B2293229BC8BF85
:105240000024A3F10203D8BF0124032B00F28A80BB
:10525000DFE803F02D4F4D5BDDE916431C4404F2FB
:105260003243202BC3BFC3F1400304F2124009FABA
:1052700003F3C3F12003C6BF26FA00F0184306FA71
:1052800003F0FBF7AFF80123A1F1F871013C139390
:105290006FE70123B2E70F90B1E7069BA3EB0A0388
:1052A0000693CAF100030A9300230E93BEE700237E
:1052B0000B93239B002B58DC4FF001094B46CDF894
:1052C0002090CDF88C900022686A4260042202F19E
:1052D00014069E4241684ED9284600F0E1FC039036
:1052E00000284CD102464FF4D571174BCCE6012370
:1052F000DEE700230B93239B0AEB030909F101036B
:10530000012B0893B8BF0123DDE70123F2E700BFBB
:1053100061436F63A787D23FB3C8608B288AC63FBB
:10532000FB799F501344D33FD2740008E9740008FE
:105330000000F07FCE740008C5740008A173000857
:105340000000F83F2076000867750008012400235C
:105350000B9422934FF0FF3900221223CDF82090B6
:105360002392B0E701230B93F4E7DDF88C904B46D2
:10537000CDF82090A7E7013141605200A7E76B6AA2
:10538000039A1A60089B0E2B00F2A880002C00F0F4
:10539000A580BAF1000F34DD9A4A0AF00F0302EB40
:1053A000C3031AF4807FD3E90034CDE910344FEA07
:1053B0002A1416D0DDE90C01934B0327D3E9082307
:1053C000FBF7B4F9CDE9040104F00F048E4E54B993
:1053D000DDE91023DDE90401FBF7A8F9CDE90401BB
:1053E00029E00227F2E7E10708D5DDE91001D6E957
:1053F0000023FBF771F8CDE910010137641008367E
:10540000E5E700F0A580DDE90C01CAF100047D4B61
:1054100004F00F0203EBC203D3E90023FBF75CF8AF
:1054200002270023CDE90401774E2411002C40F01F
:105430008480002BD2D10F9B002B00F08B80DDE904
:105440000434CDE91034DDE9100100226F4BFBF785
:10545000B5FA00287ED0089B002B7BD0B9F1000F55
:1054600038DDDDE910010022694BFBF735F84C46C9
:10547000CDE904010AF1FF3801373846FAF7C2FFD7
:10548000DDE90423FBF728F80022624BFAF76EFEF1
:10549000A1F15076CDE910011196002C5DD1DDE926
:1054A000040100225C4BFAF75FFE02460B46CDE991
:1054B00004233346109AFBF79FFA002840F09C82A1
:1054C000DDE90401109A06F10043FBF777FA0028A2
:1054D00040F09082DDE90C34CDE90434179B002BB9
:1054E000C0F25281BAF10E0F00F34E81454B03EB2F
:1054F000CA03D3E90034CDE90634239B002B80F2A4
:10550000DB80089B002B00F3D78040F07282DDE93E
:1055100006010022404BFAF7DFFFDDE90423FBF729
:1055200061FA089C2646002840F048823123039FF8
:105530000AF1010A07F8013B44E2E20705D5D6E982
:105540000023FAF7C9FF01230137641008366DE71D
:10555000022770E7D046089C8FE70399294B214426
:1055600012910B9903EBC403DDE9106753E90223A1
:10557000002955D000202949FBF7D8F83B46324690
:10558000FAF7F2FDCDE91001039FDDE90401FBF715
:1055900053FA0446FAF736FF02460B46DDE90401EA
:1055A000FAF7E2FD02460B463034CDE90423DDE98B
:1055B000102307F8014BFBF701FA002874D1DDE94D
:1055C000042300201149FAF7CFFDDDE91023FBF792
:1055D000F5F9002840F0B780129B9F423FF47AAF64
:1055E000DDE9100100220A4BFAF776FF0022CDE92F
:1055F0001001DDE90401064BFAF76EFFCDE9040165
:10560000C3E700BF20760008F87500080000F03FEF
:105610000000244000001C40000014400000E03F57
:1056200030463946FAF758FF129BCDE91001039C2A
:105630001493DDE90401FBF7FFF91590FAF7E2FE98
:1056400002460B46DDE90401FAF78EFD159B06467E
:10565000303304F8013B129B0F469C424FF000028E
:1056600024D1DDE91001B04BFAF780FD02460B466C
:1056700030463946FBF7C0F9002863D1DDE9102335
:105680000020A949FAF770FD02460B46304639461C
:10569000FBF794F900283FF41DAF149F7B1E149371
:1056A00017F8013C302BF8D0C2463BE09F4BFAF78D
:1056B00013FFCDE90401BCE7039FDDE90489DDE9BF
:1056C000062340464946FBF731F8FBF7B5F9044697
:1056D000FAF798FEDDE90623FAF7FEFE02460B46CE
:1056E00040464946FAF740FD04F1300607F8016BE1
:1056F000039EDDF820C0BE1BB44502460B4636D1E2
:10570000FAF734FDDDE9062380468946FBF774F994
:1057100058BBDDE9062340464946FBF745F908B189
:10572000E10722D42846594600F0FAFA00233B70DC
:10573000249B0AF101001860269B002B3FF4DEAC8D
:105740001F60DBE427463B461F4613F8012D392A2C
:1057500007D1039A9A42F7D13022039908F1010840
:105760000A701A7801321A709EE7D046EBE70022E1
:105770006E4BFAF7B1FE0022002380468946FBF704
:1057800013F900289BD0CDE70B9A002A00F0D080B7
:10579000229A012A00F3AE80139A002A00F0A68014
:1057A00003F233430A9C069F069A01211A4406928B
:1057B000099A28461A44099200F068FB0646002F11
:1057C0000CDD099B002B09DDBB42A8BF3B46069AB6
:1057D000FF1AD21A0692099AD31A09930A9BF3B1B7
:1057E0000B9B002B00F0A880002C10DD31462246D8
:1057F000284600F009FC5A4601460646284600F0B5
:105800005BFB80465946284600F08AFAC3460A9B4D
:105810001A1B04D05946284600F0F6FB83460121A6
:10582000284600F033FB0E9B0446002B40F3868095
:105830001A460146284600F0E7FB229B0446012B4E
:105840007FDD4FF00008236904EB8303186900F043
:10585000CFFAC0F12000099B184410F01F0000F09F
:105860009280C0F12003042B40F38A80C0F11C0019
:10587000069B074403440693099B03440993069B34
:10588000002B05DD59461A46284600F017FC8346D2
:10589000099B002B05DD21461A46284600F00EFC28
:1058A00004460F9B002B70D02146584600F076FC32
:1058B00000286ADA002359460A22284600F052FAE4
:1058C0000B9B83460AF1FF3A002B00F0948131468E
:1058D00000230A22284600F045FAB9F1000F0646D7
:1058E00000F39380229B022B57DC8EE0169BC3F1C2
:1058F000360357E7089B5C1E0A9BA342B7BF0A9B6F
:105900001C1BE21A0E9BBEBF0A949B180E93089BA9
:10591000B8BF0024002BBBBF069B089A069F9F1AA6
:10592000ACBF089B00233FE70000E03F000024409D
:105930000A9C069F0B9E42E70A9A6BE7229B012B6B
:1059400019DC049BBBB9059BC3F313039BB9059BEF
:1059500023F000431B0D1B0583B14FF00108069B8C
:1059600001330693099B013309930E9B002B7FF4AF
:105970006AAF01206FE74FF00008F6E79846F4E7BA
:105980003FF47DAF18461C3072E7089B002B36DCD5
:10599000229B022B33DDDDF82090B9F1000F0DD1F1
:1059A00021464B460522284600F0DCF90146044614
:1059B000584600F0F3FB00283FF7B8AD239B039F48
:1059C0006FEA030A4FF000082146284600F0A8F9C4
:1059D000002E3FF4A7AEB8F1000F05D0B04503D0BC
:1059E0004146284600F09CF93146284600F098F9D7
:1059F00098E600242646E1E7C246264696E50B9B3C
:105A0000DDF82090002B00F0FD80002F05DD3146F1
:105A10003A46284600F052FB0646B8F1000F5CD02B
:105A20002846716800F03CF9074628B9024640F262
:105A3000EA217F4BFFF728BB326906F10C010232E5
:105A400092000C3000F012F901223946284600F08D
:105A500035FBB0460646039B01330893039B4B443A
:105A60000A93049B03F001030993089B2146013B21
:105A700058460493FFF766FA0346414630330690D2
:105A800058460B9300F08AFB324681462146284651
:105A900000F0A0FBC26807460B9B02BB01465846BC
:105AA00000F07CFB02460B9B39462846CDE90B32C1
:105AB00000F036F9229B0C9A089F43EA0201099BE9
:105AC0000B430B9B0DD1392B29D0B9F1000F01DD10
:105AD000069B3133049A137076E73046B9E701220A
